:1000000002EF00F0CEECFFF006EF00F0000E0D6EF8
:100010007BECFFF05BECFFF080ECFFF05BECFFF0C3
:02002000F5D712
:020000040001F9
:10FEB600FF0E65ECFFF0FF0E65ECFFF0FF0E65EC44
:10FEC600FFF01200026EFA0E6CECFFF0022EFBD76A
:10FED6001200006E003A0F0E0014016EF00E0016AE
:10FEE60076ECFFF01200000E0006015AFDE2120049
:10FEF600000E0C6E85ECFFF01200FF0E0C6E85EC0A
:10FF0600FFF012008A908A82020E096E000E0B6EB6
:10FF16000A6E080E086E400E076EC4ECFFF0BAECCF
:10FF2600FFF00B2A0CC08CFFD6ECFFF0072EFAD799
:10FF3600082EF1D78A928A80092EE8D712008A9471
:10FF46008A963E0E8C6EEBECFFF08A848A8612004F
:10FF56008A948A963F0E8C6E8A828A90EBECFFF02A
:10FF66008A808A92EBECFFF08A848A8612008A9451
:10FF76008A96400E0A248C6EEBECFFF08A848A8601
:10FF860012008A948A96B80E0B248C6EEBECFFF066
:10FF96008A848A861200936A8A68956AABECFFF0B7
:10FFA6007BECFFF012008A98010E6CECFFF08A964B
:10FFB6008A84010E6CECFFF08A88010E6CECFFF06F
:10FFC6008A98010E6CECFFF08A868A948A88120061
:10FFD6008A98010E6CECFFF08A968A94010E6CECFE
:10FFE600FFF08A88010E6CECFFF08A98010E6CEC2B
:0AFFF600FFF08A888A868A941200C0
:00000001FF
